:100000000C9466000C948E000C948E000C948E0060
:100010000C948E000C948E000C948E000C948E0028
:100020000C948E000C948E000C948E000C948E0018
:100030000C948E000C948E000C948E000C948E0008
:100040000C9476030C948E000C9437050C94730575
:100050000C948E000C948E000C948E000C948E00E8
:100060000C948E000C948E006C026E027002720270
:100070007402760278027A027C0200000007000215
:10008000010000030406000000000000000001025F
:100090000408102040800102040810200102040816
:1000A00010200404040404040404020202020202F4
:1000B00003030303030300000000250028002B00B6
:1000C00000000000240027002A003A0611241FBE69
:1000D000CFEFD8E0DEBFCDBF11E0A0E0B1E0E0E0BF
:1000E000F2E102C005900D92A233B107D9F721E0E9
:1000F000A2E3B1E001C01D92AC3EB207E1F710E00F
:10010000CCECD0E004C02297FE010E94E608CA3C75
:10011000D107C9F70E94B2060C94FE080C940000A7
:1001200061E0809108010E944C0461E080910A0125
:100130000E944C0461E080910C010E944C0461E03B
:1001400080910E010E944C0461E080911E010E948A
:100150004C0461E080911C010E944C0461E080919C
:100160001A010E944C0461E0809118010E944C0425
:1001700061E0809116010E944C0461E080911401BD
:100180000E944C0461E0809112010E944C0461E0E5
:10019000809110010E944C0440E855E260E070E05C
:1001A00085E491E00C94BA0561E080911E010E9403
:1001B0006C0461E080911C010E946C0461E08091FC
:1001C0001A010E946C0461E0809118010E946C0485
:1001D00061E0809116010E946C0461E0809114013D
:1001E0000E946C0460E0809112010C946C0460E049
:1001F00080911E010E946C0461E080911C010E94AC
:100200006C0461E080911A010E946C0460E08091AE
:1002100018010E946C0460E0809116010E946C0439
:1002200060E0809114010E946C0460E080911201F2
:100230000C946C0461E080911E010E946C0461E0EA
:1002400080911C010E946C0460E080911A010E9460
:100250006C0461E0809118010E946C0461E080915F
:1002600016010E946C0460E0809114010E946C04ED
:1002700061E0809112010C946C0461E080911E0198
:100280000E946C0461E080911C010E946C0461E09A
:1002900080911A010E946C0461E0809118010E9413
:1002A0006C0460E0809116010E946C0460E0809113
:1002B00014010E946C0461E0809112010C946C04A2
:1002C00060E080911E010E946C0461E080911C013D
:1002D0000E946C0461E080911A010E946C0460E04D
:1002E000809118010E946C0460E0809116010E94C8
:1002F0006C0461E0809114010E946C0461E08091C3
:1003000012010C946C0461E080911E010E946C0447
:1003100060E080911C010E946C0461E080911A01F0
:100320000E946C0461E0809118010E946C0460E0FE
:10033000809116010E946C0461E0809114010E947A
:100340006C0461E0809112010C946C0461E0809176
:100350001E010E946C0460E080911C010E946C04EC
:1003600061E080911A010E946C0461E080911801A3
:100370000E946C0461E0809116010E946C0461E0AF
:10038000809114010E946C0461E0809112010C9430
:100390006C0461E080911E010E946C0461E0809118
:1003A0001C010E946C0461E080911A010E946C049F
:1003B00060E0809118010E946C0460E08091160159
:1003C0000E946C0460E0809114010E946C0460E063
:1003D000809112010C946C0461E080911E010E94D6
:1003E0006C0461E080911C010E946C0461E08091CA
:1003F0001A010E946C0461E0809118010E946C0453
:1004000061E0809116010E946C0461E0809114010A
:100410000E946C0461E0809112010C946C0461E014
:1004200080911E010E946C0461E080911C010E9479
:100430006C0461E080911A010E946C0461E080917B
:1004400018010E946C0460E0809116010E946C0407
:1004500061E0809114010E946C0461E080911201BE
:100460000C946C04CF93DF93EC0161E08091080160
:100470000E946C0461E080910A010E946C0461E0BA
:1004800080910C010E946C0461E080910E010E9439
:100490006C0460E0C230D10541F0C330D10541F0B9
:1004A000219749F48091080108C080910A0105C094
:1004B00080910C0102C080910E01DF91CF910C94CC
:1004C0006C0401978930910528F48C5C9F4FFC01E6
:1004D0000C94E4080C94D4000C94F7000C941A01CA
:1004E0000C943D010C9460010C9483010C94A601C2
:1004F0000C94C9010C94EC010C940F0261E0809102
:1005000010010C946C0460E080911E010E946C0448
:1005100060E080911C010E946C0460E080911A01EF
:100520000E946C0460E0809118010E946C0460E0FD
:10053000809116010E946C0460E0809114010E9479
:100540006C0460E0809112010E946C0460E0809174
:1005500010010C946C04CF92DF92EF92FF920F93F4
:100560001F93CF93DF9380E00E940604EC018091FB
:10057000320190913301C817D90709F465C0BE0153
:10058000882777FD8095982F0E94BF0720E030E0F4
:1005900040E85AE30E944B0820E030E44CE955E47F
:1005A0000E944B0820E030E040E251E40E94240722
:1005B00020E030E040E151E40E944B0820E030E0D0
:1005C00040EA50E40E94240720E030E040E052E49A
:1005D0000E94C0066B017C010E948C078B0120E009
:1005E00030E040E251E4C701B6010E944B080E948E
:1005F0008C072AE030E0CB01B9010E94AE0890934D
:100600003B0180933A01C801B9010E94AE08909362
:10061000390180933801CB01B9010E94AE08909353
:10062000370180933601C80164E670E00E94AE088D
:10063000CB01B9010E94AE0890933501809334013B
:10064000D0933301C09332010E94830281E090E095
:100650000E94320280913401909135010E94610222
:1006600080910601909107010E94C0030E948302BD
:1006700082E090E00E943202809136019091370131
:100680000E94610280910601909107010E94C003BF
:100690000E94830283E090E00E9432020E947E0268
:1006A00080913801909139010E9461028091060188
:1006B000909107010E94C0030E94830284E090E0B1
:1006C0000E94320280913A0190913B010E946102A6
:1006D0008091060190910701DF91CF911F910F91B9
:1006E000FF90EF90DF90CF900C94C0031F920F9279
:1006F0000FB60F9211242F933F938F939F93AF9335
:10070000BF9380913D0190913E01A0913F01B09136
:10071000400130913C0123E0230F2D3720F4019656
:10072000A11DB11D05C026E8230F0296A11DB11D14
:1007300020933C0180933D0190933E01A0933F01A3
:10074000B09340018091410190914201A0914301F9
:10075000B09144010196A11DB11D80934101909378
:100760004201A0934301B0934401BF91AF919F9187
:100770008F913F912F910F900FBE0F901F90189562
:100780000197009739F0880F991F880F991F0297DA
:100790000197F1F70895789484B5826084BD84B59B
:1007A000816084BD85B5826085BD85B5816085BD6C
:1007B000EEE6F0E0808181608083E1E8F0E0108285
:1007C000808182608083808181608083E0E8F0E0C6
:1007D000808181608083E1EBF0E0808184608083B0
:1007E000E0EBF0E0808181608083EAE7F0E08081E7
:1007F0008460808380818260808380818160808347
:100800008081806880831092C10008958E3008F046
:100810008E5087702091200190E4299F900111242F
:10082000822B80937C0080917A00806480937A0090
:1008300080917A0086FDFCCF80917800209179002C
:1008400090E0922B0895833081F028F4813099F064
:100850008230A1F008958630A9F08730B9F0843055
:10086000D1F4809180008F7D03C0809180008F77CC
:1008700080938000089584B58F7702C084B58F7D02
:1008800084BD08958091B0008F7703C08091B0003F
:100890008F7D8093B000089590E0FC01E257FF4FF8
:1008A0002491FC01EE55FF4FE491EE23A1F0F0E01E
:1008B000EE0FFF1FE054FF4FA591B4919FB7611158
:1008C00005C0F8948C912095822303C0F8948C91F4
:1008D000822B8C939FBF08950F931F93CF93DF9329
:1008E0001F92CDB7DEB7282F30E0F901E658FF4F51
:1008F0008491F901E257FF4F1491F901EE55FF4F32
:1009000004910023C9F0882321F069830E94230405
:100910006981E02FF0E0EE0FFF1FEA54FF4FA59131
:10092000B4919FB7F8948C91611103C01095812305
:1009300001C0812B8C939FBF0F90DF91CF911F91AE
:100940000F910895FC0124853585F901E05CFF4F86
:1009500080819181329620813181821B930B8F732C
:1009600099270895FC0184859585FC01E05CFF4F83
:10097000408151813296208131814217530741F0E5
:100980000190F081E02DE80FF91F808190E008953B
:100990008FEF9FEF0895FC0184859585FC01E05C55
:1009A000FF4F408151813296208131814217530798
:1009B00079F0A081B181A80FB91F8C91208131817C
:1009C0002F5F3F4F2F7333273183208390E00895AB
:1009D0008FEF9FEF0895FC0186859785FC01E05C11
:1009E000FF4FDC01AE5BBF4F408151812D913C91A7
:1009F000119742175307C1F708951F93CF93DF93C1
:100A0000FC01162F26853785E901C05CDF4F888100
:100A10009981019660E470E00E94AE08D901AE5B56
:100A2000BF4F4D915C91119784179507D1F3A88121
:100A3000B981A20FB31F1C93A685B785A05CBF4FD9
:100A400011969C938E93A689B7892C9181E090E0B2
:100A5000058C02C0880F991F0A94E2F7282B2C936B
:100A600081E090E0DF91CF911F91089508951F924A
:100A70000F920FB60F9211242F933F934F938F93A2
:100A80009F93EF93FF934091C6008091E80190916E
:100A9000E90101968F7399272091EA013091EB01CA
:100AA0008217930759F0E091E801F091E901E855C8
:100AB000FE4F40839093E9018093E801FF91EF910D
:100AC0009F918F914F913F912F910F900FBE0F905B
:100AD0001F90189585E491E00E94A204892B11F0E3
:100AE0000C94360508951F920F920FB60F921124A1
:100AF0002F933F935F936F937F938F939F93AF93C6
:100B0000BF93EF93FF932091A4013091A5018091B1
:100B1000A6019091A7012817390731F48091C100EF
:100B20008F7D8093C10016C0E091A601F091A701CE
:100B3000EC59FE4F20818091A6019091A70101966A
:100B400060E470E00E94AE089093A7018093A60134
:100B50002093C600FF91EF91BF91AF919F918F912C
:100B60007F916F915F913F912F910F900FBE0F90EA
:100B70001F901895CF92DF92EF92FF92CF93DF9361
:100B8000EC016A017B01411581EE58076105710591
:100B9000F9F0EC89FD8981E090E00E8C02C0880FAD
:100BA000991F0A94E2F7808360E079E08DE390E09A
:100BB000A70196010E94C20821503109410951093B
:100BC0005695479537952795211580E1380798F078
:100BD000EC89FD89108260E874E88EE190E0A7015D
:100BE00096010E94C20821503109410951095695C8
:100BF000479537952795E889F9893083EA89FB89F4
:100C00002083EE89FF89408181E090E09C010A8C7D
:100C100002C0220F331F0A94E2F7422B4083EE8971
:100C2000FF8940819C010B8C02C0220F331F0A9464
:100C3000E2F7422B4083EE89FF8940819C010C8CB6
:100C400002C0220F331F0A94E2F7422B4083EE8941
:100C5000FF8920810D8C02C0880F991F0A94E2F74A
:100C6000809582238083DF91CF91FF90EF90DF907A
:100C7000CF900895109248011092470188EE93E0BA
:100C8000A0E0B0E08093490190934A01A0934B010A
:100C9000B0934C0185E291E0909346018093450129
:100CA00088EA91E0909352018093510184E691E0AB
:100CB000909354018093530185EC90E090935601FA
:100CC0008093550184EC90E09093580180935701F4
:100CD00080EC90E090935A018093590181EC90E070
:100CE00090935C0180935B0186EC90E090935E01B1
:100CF00080935D0184E080935F0183E080936001D5
:100D000087E08093610185E08093620181E08093B8
:100D100063010895CF92DF92EF92FF920F931F939A
:100D2000CF93DF936C017A01EB01E60EF71E00E032
:100D300010E0CE15DF0561F06991D601ED91FC91CF
:100D40000190F081E02DC6010995080F191FF1CF20
:100D5000C801DF91CF911F910F91FF90EF90DF902D
:100D6000CF9008950E94CB030E949000CAE6D5E080
:100D70000E94AB022097E1F30E946A05F9CF505818
:100D8000BB27AA270ED04DC13ED130F043D120F071
:100D900031F49F3F11F41EF433C10EF4E095E7FBEC
:100DA00029C1E92F4FD180F3BA176207730784076F
:100DB000950718F071F49EF567C10EF4E0950B2EBF
:100DC000BA2FA02D0B01B90190010C01CA01A0019D
:100DD0001124FF27591B99F0593F50F4503E68F1F8
:100DE0001A16F040A22F232F342F4427585FF3CF39
:100DF000469537952795A795F0405395C9F77EF40A
:100E00001F16BA0B620B730B840BBAF09150A1F052
:100E1000FF0FBB1F661F771F881FC2F70EC0BA0FD8
:100E2000621F731F841F48F4879577956795B79560
:100E3000F7959E3F08F0B3CF9395880F08F0992758
:100E4000EE0F9795879508950CD0EBC0E3D040F056
:100E5000DAD030F021F45F3F19F0CCC0511115C148
:100E6000CFC0F0D098F39923C9F35523B1F3951B64
:100E7000550BBB27AA2762177307840738F09F5FBB
:100E80005F4F220F331F441FAA1FA9F333D00E2E2A
:100E90003AF0E0E830D091505040E695001CCAF797
:100EA00029D0FE2F27D0660F771F881FBB1F26175C
:100EB00037074807AB07B0E809F0BB0B802DBF012F
:100EC000FF2793585F4F2AF09E3F510568F092C06C
:100ED000DCC05F3FECF3983EDCF386957795679531
:100EE000B795F7959F5FC9F7880F911D96958795E0
:100EF00097F90895E1E0660F771F881FBB1F6217FF
:100F000073078407BA0720F0621B730B840BBA0BBC
:100F1000EE1F88F7E095089504D06894B111B5C02C
:100F2000089598D088F09F5790F0B92F9927B7511E
:100F3000A0F0D1F0660F771F881F991F1AF0BA959D
:100F4000C9F712C0B13081F09FD0B1E008959CC0C4
:100F5000672F782F8827B85F39F0B93FCCF3869593
:100F600077956795B395D9F73EF4909580957095F0
:100F700061957F4F8F4F9F4F0895E89409C097FB6D
:100F80003EF490958095709561957F4F8F4F9F4F60
:100F90009923A9F0F92F96E9BB279395F6958795A4
:100FA00077956795B795F111F8CFFAF4BB0F11F467
:100FB00060FF1BC06F5F7F4F8F4F9F4F16C088230E
:100FC00011F096E911C0772321F09EE8872F762F44
:100FD00005C0662371F096E8862F70E060E02AF085
:100FE0009A95660F771F881FDAF7880F9695879571
:100FF00097F9089597F99F6780E870E060E0089599
:101000009FEF80EC089500240A9416161706180620
:101010000906089500240A941216130614060506FC
:101020000895092E0394000C11F4882352F0BB0F8D
:1010300040F4BF2B11F460FF04C06F5F7F4F8F4FF0
:101040009F4F089557FD9058440F551F59F05F3F2B
:1010500071F04795880F97FB991F61F09F3F79F0DA
:1010600087950895121613061406551FF2CF46955C
:10107000F1DF08C0161617061806991FF1CF8695DE
:101080007105610508940895E894BB2766277727C2
:10109000CB0197F908950BD0C4CFB5DF28F0BADFA4
:1010A00018F0952309F0A6CFABCF1124EECFCADFFD
:1010B000A0F3959FD1F3950F50E0551F629FF0016B
:1010C000729FBB27F00DB11D639FAA27F00DB11DC4
:1010D000AA1F649F6627B00DA11D661F829F22274D
:1010E000B00DA11D621F739FB00DA11D621F839FD4
:1010F000A00D611D221F749F3327A00D611D231FAA
:10110000849F600D211D822F762F6A2F11249F57F7
:1011100050408AF0E1F088234AF0EE0FFF1FBB1F1A
:10112000661F771F881F91505040A9F79E3F5105B9
:1011300070F060CFAACF5F3FECF3983EDCF386956A
:1011400077956795B795F795E7959F5FC1F7FE2B64
:10115000880F911D9695879597F9089597FB072E0F
:1011600016F4009407D077FD09D00E94EA0807FC26
:1011700005D03EF4909581959F4F089570956195A7
:101180007F4F0895A1E21A2EAA1BBB1BFD010DC0C3
:10119000AA1FBB1FEE1FFF1FA217B307E407F50727
:1011A00020F0A21BB30BE40BF50B661F771F881F03
:1011B000991F1A9469F760957095809590959B0199
:1011C000AC01BD01CF010895EE0FFF1F0590F49112
:1011D000E02D0994AA1BBB1B51E107C0AA1FBB1F2E
:1011E000A617B70710F0A61BB70B881F991F5A95B3
:1011F000A9F780959095BC01CD010895F894FFCF93
:101200000000EC0120003700010002000300040090
:101210000A00080006000C000B000900070005008A
:101220000100000000FD048A06A204CB04B204EB16
:021230000400B8
:00000001FF
